{
  "_format": "hh-sol-artifact-1",
  "contractName": "GiftContract",
  "sourceName": "contracts/GiftContract.sol",
  "abi": [
    {
      "inputs": [
        {
          "internalType": "address",
          "name": "_charityWallet",
          "type": "address"
        },
        {
          "internalType": "address",
          "name": "_companyWallet",
          "type": "address"
        }
      ],
      "stateMutability": "nonpayable",
      "type": "constructor"
    },
    {
      "inputs": [],
      "name": "ReentrancyGuardReentrantCall",
      "type": "error"
    },
    {
      "anonymous": false,
      "inputs": [
        {
          "indexed": true,
          "internalType": "address",
          "name": "paymentWallet",
          "type": "address"
        },
        {
          "indexed": true,
          "internalType": "address",
          "name": "tokenAddress",
          "type": "address"
        },
        {
          "indexed": false,
          "internalType": "uint256",
          "name": "giftAmount",
          "type": "uint256"
        },
        {
          "indexed": false,
          "internalType": "address",
          "name": "recipientWallet",
          "type": "address"
        },
        {
          "indexed": false,
          "internalType": "uint256",
          "name": "unlockTimestamp",
          "type": "uint256"
        }
      ],
      "name": "FundsLocked",
      "type": "event"
    },
    {
      "anonymous": false,
      "inputs": [
        {
          "indexed": true,
          "internalType": "address",
          "name": "sender",
          "type": "address"
        },
        {
          "indexed": true,
          "internalType": "address",
          "name": "tokenAddress",
          "type": "address"
        },
        {
          "indexed": false,
          "internalType": "uint256",
          "name": "amount",
          "type": "uint256"
        },
        {
          "indexed": false,
          "internalType": "string",
          "name": "reason",
          "type": "string"
        }
      ],
      "name": "FundsSentToCharity",
      "type": "event"
    },
    {
      "anonymous": false,
      "inputs": [
        {
          "indexed": true,
          "internalType": "address",
          "name": "paymentWallet",
          "type": "address"
        },
        {
          "indexed": true,
          "internalType": "address",
          "name": "tokenAddress",
          "type": "address"
        },
        {
          "indexed": false,
          "internalType": "uint256",
          "name": "amount",
          "type": "uint256"
        },
        {
          "indexed": false,
          "internalType": "address",
          "name": "recipientWallet",
          "type": "address"
        }
      ],
      "name": "FundsTransferred",
      "type": "event"
    },
    {
      "anonymous": false,
      "inputs": [
        {
          "indexed": true,
          "internalType": "address",
          "name": "recipientWallet",
          "type": "address"
        }
      ],
      "name": "GiftClaimed",
      "type": "event"
    },
    {
      "anonymous": false,
      "inputs": [
        {
          "indexed": true,
          "internalType": "address",
          "name": "tokenAddress",
          "type": "address"
        },
        {
          "indexed": false,
          "internalType": "bool",
          "name": "approved",
          "type": "bool"
        }
      ],
      "name": "TokenApproved",
      "type": "event"
    },
    {
      "inputs": [
        {
          "internalType": "address",
          "name": "tokenToApprove",
          "type": "address"
        },
        {
          "internalType": "bool",
          "name": "isApproved",
          "type": "bool"
        }
      ],
      "name": "approveToken",
      "outputs": [],
      "stateMutability": "nonpayable",
      "type": "function"
    },
    {
      "inputs": [
        {
          "internalType": "address",
          "name": "",
          "type": "address"
        }
      ],
      "name": "approvedTokens",
      "outputs": [
        {
          "internalType": "bool",
          "name": "",
          "type": "bool"
        }
      ],
      "stateMutability": "view",
      "type": "function"
    },
    {
      "inputs": [
        {
          "internalType": "address[]",
          "name": "tokens",
          "type": "address[]"
        },
        {
          "internalType": "uint256[]",
          "name": "amounts",
          "type": "uint256[]"
        },
        {
          "internalType": "address[]",
          "name": "recipientWallets",
          "type": "address[]"
        },
        {
          "internalType": "uint256[]",
          "name": "unlockTimestamps",
          "type": "uint256[]"
        }
      ],
      "name": "batchLockFunds",
      "outputs": [],
      "stateMutability": "payable",
      "type": "function"
    },
    {
      "inputs": [],
      "name": "charityWallet",
      "outputs": [
        {
          "internalType": "address",
          "name": "",
          "type": "address"
        }
      ],
      "stateMutability": "view",
      "type": "function"
    },
    {
      "inputs": [
        {
          "internalType": "bytes",
          "name": "",
          "type": "bytes"
        }
      ],
      "name": "checkUpkeep",
      "outputs": [
        {
          "internalType": "bool",
          "name": "upkeepNeeded",
          "type": "bool"
        },
        {
          "internalType": "bytes",
          "name": "performData",
          "type": "bytes"
        }
      ],
      "stateMutability": "view",
      "type": "function"
    },
    {
      "inputs": [
        {
          "internalType": "address",
          "name": "walletToClaim",
          "type": "address"
        }
      ],
      "name": "claimGift",
      "outputs": [],
      "stateMutability": "nonpayable",
      "type": "function"
    },
    {
      "inputs": [],
      "name": "companyWallet",
      "outputs": [
        {
          "internalType": "address",
          "name": "",
          "type": "address"
        }
      ],
      "stateMutability": "view",
      "type": "function"
    },
    {
      "inputs": [
        {
          "internalType": "address",
          "name": "recipientWallet",
          "type": "address"
        }
      ],
      "name": "getGift",
      "outputs": [
        {
          "internalType": "uint256",
          "name": "giftAmount",
          "type": "uint256"
        },
        {
          "internalType": "uint256",
          "name": "unlockTimestamp",
          "type": "uint256"
        },
        {
          "internalType": "uint256",
          "name": "totalRequired",
          "type": "uint256"
        },
        {
          "internalType": "bool",
          "name": "isClaimed",
          "type": "bool"
        },
        {
          "internalType": "address",
          "name": "tokenAddress",
          "type": "address"
        }
      ],
      "stateMutability": "view",
      "type": "function"
    },
    {
      "inputs": [
        {
          "internalType": "address",
          "name": "recipientWallet",
          "type": "address"
        }
      ],
      "name": "getGiftsByRecipient",
      "outputs": [
        {
          "internalType": "uint256",
          "name": "giftAmount",
          "type": "uint256"
        },
        {
          "internalType": "uint256",
          "name": "unlockTimestamp",
          "type": "uint256"
        },
        {
          "internalType": "bool",
          "name": "isClaimed",
          "type": "bool"
        },
        {
          "internalType": "address",
          "name": "tokenAddress",
          "type": "address"
        }
      ],
      "stateMutability": "view",
      "type": "function"
    },
    {
      "inputs": [
        {
          "internalType": "address",
          "name": "",
          "type": "address"
        }
      ],
      "name": "gifts",
      "outputs": [
        {
          "internalType": "uint256",
          "name": "giftAmount",
          "type": "uint256"
        },
        {
          "internalType": "uint256",
          "name": "unlockTimestamp",
          "type": "uint256"
        },
        {
          "internalType": "uint256",
          "name": "totalRequired",
          "type": "uint256"
        },
        {
          "internalType": "bool",
          "name": "isClaimed",
          "type": "bool"
        },
        {
          "internalType": "address",
          "name": "tokenAddress",
          "type": "address"
        }
      ],
      "stateMutability": "view",
      "type": "function"
    },
    {
      "inputs": [
        {
          "internalType": "address",
          "name": "tokenAddress",
          "type": "address"
        },
        {
          "internalType": "uint256",
          "name": "giftAmount",
          "type": "uint256"
        },
        {
          "internalType": "address",
          "name": "recipientWallet",
          "type": "address"
        },
        {
          "internalType": "uint256",
          "name": "unlockTimestamp",
          "type": "uint256"
        }
      ],
      "name": "lockFunds",
      "outputs": [],
      "stateMutability": "payable",
      "type": "function"
    },
    {
      "inputs": [],
      "name": "ownerAddress",
      "outputs": [
        {
          "internalType": "address",
          "name": "",
          "type": "address"
        }
      ],
      "stateMutability": "view",
      "type": "function"
    },
    {
      "inputs": [
        {
          "internalType": "bytes",
          "name": "performData",
          "type": "bytes"
        }
      ],
      "name": "performUpkeep",
      "outputs": [],
      "stateMutability": "nonpayable",
      "type": "function"
    },
    {
      "inputs": [
        {
          "internalType": "address",
          "name": "newCharityWallet",
          "type": "address"
        }
      ],
      "name": "setCharityWallet",
      "outputs": [],
      "stateMutability": "nonpayable",
      "type": "function"
    },
    {
      "inputs": [
        {
          "internalType": "address",
          "name": "newCompanyWallet",
          "type": "address"
        }
      ],
      "name": "setCompanyWallet",
      "outputs": [],
      "stateMutability": "nonpayable",
      "type": "function"
    },
    {
      "inputs": [
        {
          "internalType": "address",
          "name": "recipientWallet",
          "type": "address"
        }
      ],
      "name": "transferFunds",
      "outputs": [],
      "stateMutability": "nonpayable",
      "type": "function"
    }
  ],
  "bytecode": "0x60a060405234801561001057600080fd5b506040516125aa3803806125aa83398101604081905261002f91610118565b6001600055336080526001600160a01b03821661006057733c44cdddb6a900fa2b585dd299e03d12fa4293bc610062565b815b600180546001600160a01b0319166001600160a01b03928316179055811661009e577390f79bf6eb2c4f870365e785982e1f101e93b9066100a0565b805b600280546001600160a01b0319166001600160a01b039290921691909117905550506000805260046020527f17ef568e3e12ab5b9c7254a8d58478811de00f9e6eb34345acd53bf8fd09d3ec805460ff1916600117905561014b565b80516001600160a01b038116811461011357600080fd5b919050565b6000806040838503121561012b57600080fd5b610134836100fc565b9150610142602084016100fc565b90509250929050565b60805161242861018260003960008181610355015281816104d60152818161064f01528181610ec70152610f7901526124286000f3fe6080604052600436106100f35760003560e01c80636d1ea3fa1161008a5780638f84aa09116100595780638f84aa0914610343578063a6875bfe14610377578063c479c964146103ce578063e39ff19f1461048157600080fd5b80636d1ea3fa146102a25780636e04ff0d146102e25780637b2087691461031057806387f432571461033057600080fd5b806328831187116100c6578063288311871461018a57806330563bd7146101aa5780633b0df0d7146101ca5780634585e33b1461028257600080fd5b806304f3c40e146100f85780630c0e0cef1461011a578063159d80e61461013a5780631ec32d151461014d575b600080fd5b34801561010457600080fd5b50610118610113366004611eea565b6104a1565b005b34801561012657600080fd5b50610118610135366004611f1a565b610644565b610118610148366004611f51565b6106eb565b34801561015957600080fd5b5060025461016d906001600160a01b031681565b6040516001600160a01b0390911681526020015b60405180910390f35b34801561019657600080fd5b506101186101a5366004611eea565b610ebc565b3480156101b657600080fd5b506101186101c5366004611eea565b610f6e565b3480156101d657600080fd5b5061024f6101e5366004611eea565b6001600160a01b03908116600090815260036020818152604092839020835160a081018552815480825260018301549382018490526002830154958201869052919093015460ff811615156060850181905261010090910490951660809093018390529490939190565b60408051958652602086019490945292840191909152151560608301526001600160a01b0316608082015260a001610181565b34801561028e57600080fd5b5061011861029d366004611f95565b611020565b3480156102ae57600080fd5b506102d26102bd366004611eea565b60046020526000908152604090205460ff1681565b6040519015158152602001610181565b3480156102ee57600080fd5b506103026102fd366004611f95565b611261565b604051610181929190612059565b34801561031c57600080fd5b5060015461016d906001600160a01b031681565b61011861033e3660046121b9565b611491565b34801561034f57600080fd5b5061016d7f000000000000000000000000000000000000000000000000000000000000000081565b34801561038357600080fd5b5061024f610392366004611eea565b600360208190526000918252604090912080546001820154600283015492909301549092919060ff81169061010090046001600160a01b031685565b3480156103da57600080fd5b506104526103e9366004611eea565b6001600160a01b03908116600090815260036020818152604092839020835160a0810185528154808252600183015493820184905260028301549582019590955292015460ff811615156060840181905261010090910490941660809092018290529193919291565b604080519485526020850193909352901515918301919091526001600160a01b03166060820152608001610181565b34801561048d57600080fd5b5061011861049c366004611eea565b611a18565b60006001600160a01b038216156104b857816104ba565b335b90506001600160a01b0382161561055957336001600160a01b037f000000000000000000000000000000000000000000000000000000000000000016146105595760405162461bcd60e51b815260206004820152602860248201527f4f6e6c7920636f6e7472616374206f776e65722063616e20636c61696d20666f60448201526772206f746865727360c01b60648201526084015b60405180910390fd5b6001600160a01b038116600090815260036020526040902080546105b55760405162461bcd60e51b815260206004820152601360248201527211da599d08191bd95cc81b9bdd08195e1a5cdd606a1b6044820152606401610550565b600381015460ff16156105fc5760405162461bcd60e51b815260206004820152600f60248201526e105b1c9958591e4818db185a5b5959608a1b6044820152606401610550565b60038101805460ff191660011790556040516001600160a01b038316907fb0d03679c4c3ec71f96ca9eb13217d7d81f399cb869089c3948fd0c78ba7f81a90600090a2505050565b336001600160a01b037f0000000000000000000000000000000000000000000000000000000000000000161461068c5760405162461bcd60e51b815260040161055090612279565b6001600160a01b038216600081815260046020908152604091829020805460ff191685151590811790915591519182527f54aee4f020b814c26f556399a354577e068193a82445e919505b00b9848512a5910160405180910390a25050565b6001600160a01b0382166107415760405162461bcd60e51b815260206004820152601960248201527f496e76616c696420726563697069656e742061646472657373000000000000006044820152606401610550565b4281116107865760405162461bcd60e51b8152602060048201526013602482015272155b9b1bd8dac819185d19481a5b881c185cdd606a1b6044820152606401610550565b6001600160a01b0384166107da57600034116107d25760405162461bcd60e51b815260206004820152600b60248201526a16995c9bc8185b5bdd5b9d60aa1b6044820152606401610550565b3492506108c3565b600083116108185760405162461bcd60e51b815260206004820152600b60248201526a16995c9bc8185b5bdd5b9d60aa1b6044820152606401610550565b6001600160a01b03841660009081526004602052604090205460ff166108755760405162461bcd60e51b8152602060048201526012602482015271151bdad95b881b9bdd08185c1c1c9bdd995960721b6044820152606401610550565b34156108c35760405162461bcd60e51b815260206004820152601c60248201527f4554482073656e74207769746820746f6b656e2066756e6374696f6e000000006044820152606401610550565b6001600160a01b03821660009081526003602081905260409091209081015460ff168015610905575060038101546001600160a01b0386811661010090920416145b15610a03578381600001600082825461091e91906122b3565b90915550506001600160a01b038516156109a7576040516323b872dd60e01b81526001600160a01b038616906323b872dd90610962903390309089906004016122cc565b6020604051808303816000875af1158015610981573d6000803e3d6000fd5b505050506040513d601f19601f820116820180604052508101906109a591906122f0565b505b6001810154604080518681526001600160a01b0386811660208301529181019290925286169033907f6d08918d62b5c0c86c575f9f6a1fcfb241939360e2d1e93e8498f3e096dd24e1906060015b60405180910390a350610eb6565b8054600003610b63576040805160a08101825285815260208082018581528284018881526000606085018181526001600160a01b03808d16608088018181528c83168552600397889052989093209651875593516001870155915160028601559051939092018054945190911661010002610100600160a81b0319931515939093166001600160a81b0319909416939093179190911790915515610b16576040516323b872dd60e01b81526001600160a01b038616906323b872dd90610ad1903390309089906004016122cc565b6020604051808303816000875af1158015610af0573d6000803e3d6000fd5b505050506040513d601f19601f82011682018060405250810190610b1491906122f0565b505b604080518581526001600160a01b0385811660208301529181018490529086169033907f6d08918d62b5c0c86c575f9f6a1fcfb241939360e2d1e93e8498f3e096dd24e1906060016109f5565b60038101546001600160a01b038681166101009092041614610cad576001600160a01b038516610bc457610bbf3460006040518060400160405280600e81526020016d57726f6e672063757272656e637960901b815250611cdf565b610ca7565b6001546040516323b872dd60e01b81526001600160a01b03808816926323b872dd92610bf8923392169089906004016122cc565b6020604051808303816000875af1158015610c17573d6000803e3d6000fd5b505050506040513d601f19601f82011682018060405250810190610c3b91906122f0565b50846001600160a01b0316336001600160a01b03167fd6733ef9168a12907405f98f3532dff8fe0fc0a078c562e37a71b617331a21ec866040516109f5918152604060208201819052600e908201526d57726f6e672063757272656e637960901b606082015260800190565b50610eb6565b8060020154841015610dd8576001600160a01b038516610cf757610bbf3460006040518060400160405280600c81526020016b155b99195c9c185e5b595b9d60a21b815250611cdf565b6001546040516323b872dd60e01b81526001600160a01b03808816926323b872dd92610d2b923392169089906004016122cc565b6020604051808303816000875af1158015610d4a573d6000803e3d6000fd5b505050506040513d601f19601f82011682018060405250810190610d6e91906122f0565b50846001600160a01b0316336001600160a01b03167fd6733ef9168a12907405f98f3532dff8fe0fc0a078c562e37a71b617331a21ec866040516109f5918152604060208201819052600c908201526b155b99195c9c185e5b595b9d60a21b606082015260800190565b8381556001600160a01b03851615610e5f576040516323b872dd60e01b81526001600160a01b038616906323b872dd90610e1a903390309089906004016122cc565b6020604051808303816000875af1158015610e39573d6000803e3d6000fd5b505050506040513d601f19601f82011682018060405250810190610e5d91906122f0565b505b6001810154604080518681526001600160a01b0386811660208301529181019290925286169033907f6d08918d62b5c0c86c575f9f6a1fcfb241939360e2d1e93e8498f3e096dd24e19060600160405180910390a3505b50505050565b336001600160a01b037f00000000000000000000000000000000000000000000000000000000000000001614610f045760405162461bcd60e51b815260040161055090612279565b6001600160a01b038116610f4c5760405162461bcd60e51b815260206004820152600f60248201526e496e76616c6964206164647265737360881b6044820152606401610550565b600280546001600160a01b0319166001600160a01b0392909216919091179055565b336001600160a01b037f00000000000000000000000000000000000000000000000000000000000000001614610fb65760405162461bcd60e51b815260040161055090612279565b6001600160a01b038116610ffe5760405162461bcd60e51b815260206004820152600f60248201526e496e76616c6964206164647265737360881b6044820152606401610550565b600180546001600160a01b0319166001600160a01b0392909216919091179055565b600061102e8284018461230d565b905060005b8151811015610eb657600082828151811061105057611050612342565b6020908102919091018101516001600160a01b0381166000908152600390925260409091208054919250901580159061108d5750600381015460ff165b801561109d575042816001015411155b1561125757600381015461010090046001600160a01b03166111715780546040516000916001600160a01b038516918381818185875af1925050503d8060008114611104576040519150601f19603f3d011682016040523d82523d6000602084013e611109565b606091505b50509050801561116b5760038201548254604080519182526001600160a01b0386811660208401528151610100909404169230927fe93251c2a6f732155f1cd84502a2c66884e81835c0d4768a10d81fcd79510be792908290030190a3600082555b50611257565b6003810154815460405163a9059cbb60e01b81526001600160a01b038581166004830152602482019290925260009261010090049091169063a9059cbb906044016020604051808303816000875af11580156111d1573d6000803e3d6000fd5b505050506040513d601f19601f820116820180604052508101906111f591906122f0565b905080156112555760038201548254604080519182526001600160a01b0386811660208401528151610100909404169230927fe93251c2a6f732155f1cd84502a2c66884e81835c0d4768a10d81fcd79510be792908290030190a3600082555b505b5050600101611033565b6040805160148082526102a082019092526000916060918391602082016102808036833701905050604080516060810182527370997970c51812dc3a010c7d01b50e0d17dc79c88152733c44cdddb6a900fa2b585dd299e03d12fa4293bc60208201527390f79bf6eb2c4f870365e785982e1f101e93b90691810191909152909150600090815b600381101561139e57600082826003811061130557611305612342565b602002015190506014841061131a575061139e565b6001600160a01b03811660009081526003602052604090208054158015906113465750600381015460ff165b8015611356575042816001015411155b15611394578186868151811061136e5761136e612342565b6001600160a01b03909216602092830291909101909101528461139081612358565b9550505b50506001016112e8565b5081156114705760008267ffffffffffffffff8111156113c0576113c061207c565b6040519080825280602002602001820160405280156113e9578160200160208202803683370190505b50905060005b838110156114435784818151811061140957611409612342565b602002602001015182828151811061142357611423612342565b6001600160a01b03909216602092830291909101909101526001016113ef565b5060019550806040516020016114599190612371565b604051602081830303815290604052945050611487565b600094506040518060200160405280600081525093505b5050509250929050565b611499611ea4565b825184511480156114ab575081518351145b80156114b8575080518251145b6115045760405162461bcd60e51b815260206004820152601860248201527f4172726179206c656e67746873206d757374206d6174636800000000000000006044820152606401610550565b6000805b85518110156115745760006001600160a01b031686828151811061152e5761152e612342565b60200260200101516001600160a01b03160361156c5784818151811061155657611556612342565b60200260200101518261156991906122b3565b91505b600101611508565b508034146115c45760405162461bcd60e51b815260206004820181905260248201527f496e636f7272656374206e61746976652063757272656e637920616d6f756e746044820152606401610550565b6000805b86518110156119bc5760008782815181106115e5576115e5612342565b60200260200101519050600087838151811061160357611603612342565b60200260200101519050600087848151811061162157611621612342565b60200260200101519050600087858151811061163f5761163f612342565b6020026020010151905060006001600160a01b0316826001600160a01b0316148061166a5750428111155b1561167857505050506119b4565b6001600160a01b0384166117a0578261169181886122b3565b604080516001600160a01b038881166024830152604482018590528616606482015260848082018690528251808303909101815260a490910182526020810180516001600160e01b0316630acec07360e11b1790529051919850600091309184916116fc91906123bd565b60006040518083038185875af1925050503d8060008114611739576040519150601f19603f3d011682016040523d82523d6000602084013e61173e565b606091505b50509050806117995760405162461bcd60e51b815260206004820152602160248201527f4261746368206e61746976652063757272656e6379206c6f636b206661696c656044820152601960fa1b6064820152608401610550565b50506119af565b6001600160a01b03841660009081526004602052604090205460ff166117fd5760405162461bcd60e51b8152602060048201526012602482015271151bdad95b881b9bdd08185c1c1c9bdd995960721b6044820152606401610550565b6040516323b872dd60e01b81526001600160a01b038516906323b872dd9061182d903390309088906004016122cc565b6020604051808303816000875af115801561184c573d6000803e3d6000fd5b505050506040513d601f19601f8201168201806040525081019061187091906122f0565b6118b45760405162461bcd60e51b8152602060048201526015602482015274151bdad95b881d1c985b9cd9995c8819985a5b1959605a1b6044820152606401610550565b604080516001600160a01b038681166024830152604482018690528416606482015260848082018490528251808303909101815260a490910182526020810180516001600160e01b0316630acec07360e11b1790529051600091309161191a91906123bd565b6000604051808303816000865af19150503d8060008114611957576040519150601f19603f3d011682016040523d82523d6000602084013e61195c565b606091505b50509050806119ad5760405162461bcd60e51b815260206004820152601760248201527f426174636820746f6b656e206c6f636b206661696c65640000000000000000006044820152606401610550565b505b505050505b6001016115c8565b50818114611a0c5760405162461bcd60e51b815260206004820181905260248201527f4e6f7420616c6c206e61746976652063757272656e63792077617320757365646044820152606401610550565b5050610eb66001600055565b611a20611ea4565b6001600160a01b03811660009081526003602052604090208054611a7c5760405162461bcd60e51b815260206004820152601360248201527211da599d08191bd95cc81b9bdd08195e1a5cdd606a1b6044820152606401610550565b600381015460ff16611abe5760405162461bcd60e51b815260206004820152600b60248201526a139bdd0818db185a5b595960aa1b6044820152606401610550565b8060010154421015611b125760405162461bcd60e51b815260206004820152601760248201527f556e6c6f636b2064617465206e6f7420726561636865640000000000000000006044820152606401610550565b805460038201546000835561010090046001600160a01b031680611bd1576000846001600160a01b03168360405160006040518083038185875af1925050503d8060008114611b7d576040519150601f19603f3d011682016040523d82523d6000602084013e611b82565b606091505b5050905080611bcb5760405162461bcd60e51b81526020600482015260156024820152741350551250c81d1c985b9cd9995c8819985a5b1959605a1b6044820152606401610550565b50611c88565b60405163a9059cbb60e01b81526001600160a01b0385811660048301526024820184905282169063a9059cbb906044016020604051808303816000875af1158015611c20573d6000803e3d6000fd5b505050506040513d601f19601f82011682018060405250810190611c4491906122f0565b611c885760405162461bcd60e51b8152602060048201526015602482015274151bdad95b881d1c985b9cd9995c8819985a5b1959605a1b6044820152606401610550565b604080518381526001600160a01b03868116602083015283169133917fe93251c2a6f732155f1cd84502a2c66884e81835c0d4768a10d81fcd79510be7910160405180910390a3505050611cdc6001600055565b50565b6001600160a01b038216611d8f576001546040516000916001600160a01b03169085908381818185875af1925050503d8060008114611d3a576040519150601f19603f3d011682016040523d82523d6000602084013e611d3f565b606091505b5050905080611d895760405162461bcd60e51b815260206004820152601660248201527510da185c9a5d1e481c185e5b595b9d0819985a5b195960521b6044820152606401610550565b50611e52565b60015460405163a9059cbb60e01b81526001600160a01b039182166004820152602481018590529083169063a9059cbb906044016020604051808303816000875af1158015611de2573d6000803e3d6000fd5b505050506040513d601f19601f82011682018060405250810190611e0691906122f0565b611e525760405162461bcd60e51b815260206004820152601d60248201527f4368617269747920746f6b656e207472616e73666572206661696c65640000006044820152606401610550565b816001600160a01b0316336001600160a01b03167fd6733ef9168a12907405f98f3532dff8fe0fc0a078c562e37a71b617331a21ec8584604051611e979291906123d9565b60405180910390a3505050565b600260005403611ec757604051633ee5aeb560e01b815260040160405180910390fd5b6002600055565b80356001600160a01b0381168114611ee557600080fd5b919050565b600060208284031215611efc57600080fd5b611f0582611ece565b9392505050565b8015158114611cdc57600080fd5b60008060408385031215611f2d57600080fd5b611f3683611ece565b91506020830135611f4681611f0c565b809150509250929050565b60008060008060808587031215611f6757600080fd5b611f7085611ece565b935060208501359250611f8560408601611ece565b9396929550929360600135925050565b60008060208385031215611fa857600080fd5b823567ffffffffffffffff811115611fbf57600080fd5b8301601f81018513611fd057600080fd5b803567ffffffffffffffff811115611fe757600080fd5b856020828401011115611ff957600080fd5b6020919091019590945092505050565b60005b8381101561202457818101518382015260200161200c565b50506000910152565b60008151808452612045816020860160208601612009565b601f01601f19169290920160200192915050565b8215158152604060208201526000612074604083018461202d565b949350505050565b634e487b7160e01b600052604160045260246000fd5b604051601f8201601f1916810167ffffffffffffffff811182821017156120bb576120bb61207c565b604052919050565b600067ffffffffffffffff8211156120dd576120dd61207c565b5060051b60200190565b600082601f8301126120f857600080fd5b813561210b612106826120c3565b612092565b8082825260208201915060208360051b86010192508583111561212d57600080fd5b602085015b838110156121515761214381611ece565b835260209283019201612132565b5095945050505050565b600082601f83011261216c57600080fd5b813561217a612106826120c3565b8082825260208201915060208360051b86010192508583111561219c57600080fd5b602085015b838110156121515780358352602092830192016121a1565b600080600080608085870312156121cf57600080fd5b843567ffffffffffffffff8111156121e657600080fd5b6121f2878288016120e7565b945050602085013567ffffffffffffffff81111561220f57600080fd5b61221b8782880161215b565b935050604085013567ffffffffffffffff81111561223857600080fd5b612244878288016120e7565b925050606085013567ffffffffffffffff81111561226157600080fd5b61226d8782880161215b565b91505092959194509250565b6020808252600a908201526927b7363c9037bbb732b960b11b604082015260600190565b634e487b7160e01b600052601160045260246000fd5b808201808211156122c6576122c661229d565b92915050565b6001600160a01b039384168152919092166020820152604081019190915260600190565b60006020828403121561230257600080fd5b8151611f0581611f0c565b60006020828403121561231f57600080fd5b813567ffffffffffffffff81111561233657600080fd5b612074848285016120e7565b634e487b7160e01b600052603260045260246000fd5b60006001820161236a5761236a61229d565b5060010190565b602080825282518282018190526000918401906040840190835b818110156123b25783516001600160a01b031683526020938401939092019160010161238b565b509095945050505050565b600082516123cf818460208701612009565b9190910192915050565b828152604060208201526000612074604083018461202d56fea26469706673582212202d1f1ddb760c2bfe6efecab620783c6eb3ef759b4d3bcf5aa5bdba8773a3231364736f6c634300081c0033",
  "linkReferences": {},
  "deployedLinkReferences": {}
}